:100000000C94B5050C94D2050C94D2050C94D20531
:100010000C94D2050C94D2050C94D2050C94D20504
:100020000C94D2050C94D2050C94D2050C94D205F4
:100030000C94D2050C94280D0C94D2050C94D20586
:100040000C940D0D0C94D2050C94D2050C94D20591
:100050000C94D2050C94D2050C94D2050C94D205C4
:100060000C94D2050C94D2050000000000000000A2
:10007000002F000000000700070000147F147F1409
:1000800000242A7F2A12006264081323003649558F
:10009000225000000503000000001C224100000067
:1000A00041221C000014083E08140008083E0808FD
:1000B000000000A060000008080808080000606058
:1000C0000000002010080402003E5149453E000097
:1000D000427F4000004261514946002141454B3179
:1000E000001814127F10002745454539003C4A4945
:1000F00049300001710905030036494949360006B7
:100100004949291E0000363600000000563600001E
:100110000008142241000014141414140000412299
:10012000140800020151090600324959513E007C71
:100130001211127C007F49494936003E414141225B
:10014000007F4141221C007F49494941007F090944
:100150000901003E4149497A007F0808087F0000F4
:10016000417F4100002040413F01007F08142241AF
:10017000007F40404040007F020C027F007F040867
:10018000107F003E4141413E007F09090906003EC3
:100190004151215E007F09192946004649494931EC
:1001A0000001017F0101003F4040403F001F20400F
:1001B000201F003F4038403F0063140814630007CD
:1001C0000870080700615149454300007F41410024
:1001D00000552A552A55000041417F0000040201C4
:1001E00002040040404040400000010204000020A2
:1001F00054545478007F48444438003844444420E0
:1002000000384444487F00385454541800087E098C
:1002100001020018A4A4A47C007F08040478000054
:10022000447D4000004080847D00007F1028440011
:100230000000417F4000007C04180478007C080422
:10024000047800384444443800FC2424241800185E
:10025000242418FC007C080404080048545454204A
:1002600000043F444020003C4040207C001C2040D3
:10027000201C003C4030403C004428102844001C16
:10028000A0A0A07C004464544C44000008774100C6
:100290000000006300000000417708000008040827
:1002A0000804000000000000000000000000000042
:1002B000000000000000000000000000000000003E
:1002C000000000000000000000000000000000002E
:1002D000000000000000000000000000000000001E
:1002E000000000000000000000000000000000000E
:1002F00000000000000000000000000000000000FE
:1003000000000000000000000000000000000000ED
:1003100000000000000000000000000000000000DD
:1003200000000000000000000000000000000000CD
:1003300070F8F8F0E080000000000000000000000D
:1003400000C0F0F0F000000000000000000000001D
:1003500000000080C0E0FCFEFFEF0F0F0F0F1E1E1D
:100360001E3C7CF8F0E0C0801C7CFCF8E0C0000083
:1003700000000000000000001F7FFFFFF8E0C080C9
:10038000000000000000000000000000000000006D
:10039000000000000000000000000000000000005D
:1003A000000000000000000000000000000000004D
:1003B000000003071F1F3E7E787870F0F0F0F8FC15
:1003C000FEFFBF0F0300000000000000000000005F
:1003D00000FCFFFFFF07010000000000000000001C
:1003E0000000000003FFFFFFFE000103071F3F3E68
:1003F0007CF8F0E0C0C08000000007FFFFFF6F1F27
:100400003F3E3C38380000000000000000000000C3
:10041000000000007EFEFEF8E0800000000000000A
:1004200000000000000000000000000000000000CC
:1004300000000000000000000000000000000003B9
:100440003FFFFFFEE0C000000000000000000000D1
:1004500000070F1F7F7CF8F0F0E0E0E0E0E0E0E074
:10046000F0F0F8787E3F1F0F03000000000000004E
:10047000000001030307070F0F0F0F0F0F07000006
:10048000000000000000000000000000000000006C
:100490000000000000010F3FFFFFFCF080000000A3
:1004A00000000000000000000000000000808080CC
:1004B00080000000000000000000000000000000BC
:1004C0000000030F1F1F1E000000000000000000BE
:1004D0000000000000000000000101010101010115
:1004E00001000000000000000080808080C0C0C0CB
:1004F000C0E0E0E0C0C0C00000000000000000005C
:100500000000FCFCFCFCDC9C9C9C1C1C1C1C1C9C23
:100510009CBCBC3C3C000000011FFFFFFFE08000D2
:100520000000000000000000000000000003FFFFCA
:10053000FFF80000000000000000000000000000C4
:100540000000000000000000000000000000C0E00B
:10055000F8FC7C3C1E1E1F0F0F0E0E1E3E3CFCF8CE
:10056000F0E0000000000000000F0F1F1F3F3F3FA2
:100570003D797979F1F1F0E0E0E0C0C0C080800021
:10058000000000030F1F3F7FFFFFEFCF8F0F0F0F04
:10059000070707000000000000000303070707002B
:1005A0000000000000000000000000000000017FCB
:1005B0007F7FF0F0F0F0F0F0F0F0F0F0F0F0F0F01D
:1005C000F0F0F0F0F0F0F0F0F0F07000003E3FFFDF
:1005D000FFF0E0E0C0C0C0C0C0C0E0E0E0F0F0FF6D
:1005E0007F3F0E000000000000000000001C1E1EE7
:1005F0003F3F3F3E78787971F1F3737377777F7F70
:100600007F7F3E3E3E000000000103070F0F1F3EAC
:100610003E3C7C7878787E7E7E000000307878786A
:1006200000000000000000000000000000000000CA
:1006300000000000000000000000000000000000BA
:1006400000000000000000000000000000000000AA
:10065000000101010101010101010101010100008D
:10066000000000000000000000000000000000008A
:10067000000000000000000000000000000000007A
:10068000000000000000000000000000000000006A
:10069000000000000000000000000000000000005A
:1006A000000000000000000000000000000000004A
:1006B000000000000000000000000000000000003A
:1006C000000000000000000000000000000000002A
:1006D000000000000000000000000000000000001A
:1006E000000000000000000000000000000000000A
:1006F00000000000000000000000000000000000FA
:1007000000000000000000000000000000000000E9
:1007100000000000000000000000000000000000D9
:10072000000000000000000000000000000010FCBD
:10073000FCF0800000000000000000FCFEFCF00067
:10074000000000081C1C9CDCDCFCFC3870F0E0C0E5
:10075000800000000000001E3FFEF8C08000000086
:1007600000000000000038FCF8E0800000000000FD
:100770000000000000000000000000000000000079
:1007800000000000183CF8F0E0C00000000000008D
:100790000000000000000000000000000000000059
:1007A0000000000000000000000000000000000148
:1007B00003070F1E1C1C1C3C7CFCFE8F0703000063
:1007C000000000F0FEFFFF0301010000000003FF36
:1007D000FFFF00000000000000000103070F1C38AD
:1007E00070F0E0E0C0C08081FFFFFF4F3C38F0E0D8
:1007F000C0800000000000000000000000000000B9
:1008000000000000000000030F7FFEF8C0000000A1
:1008100000000000000000000000000000000000D8
:1008200000000000000000000000000000000000C8
:10083000000000000000000000073FFFFFF0C000C4
:1008400000000000010307070E0E0E0E0E0E0F0F24
:100850000701000000000000000000008080000090
:100860000000010101030703030301000000000170
:100870000103070F07020000000000000000000055
:100880000000800000000000000001071F7FFCF056
:10089000C000000000000000000000000000000098
:1008A0000000000000000000000000000000000048
:1008B0000000000000000000000000000103010033
:1008C0000000000000000000000000000000000028
:1008D00000000000000000000000000F1F3FFFFCB0
:1008E000F000000000000000F0F8F8F00000000048
:1008F0000038FEFFFFFEF8E0C0000000000000002E
:1009000000071FFFFEF08000000000000000010350
:100910000F1F3E78F0E040000000000000000000E3
:1009200000000000000000000000000000000000C7
:1009300000000000000000000000000000000000B7
:100940000000000F3FFCF8C0800000000000000025
:10095000000000C0FCFEFEFCC08080000000A1FF83
:10096000FFFF00000000000017FFFFFF00800000F5
:100970000000000F7FFFFFFFC70F1E3C78F0E080F4
:10098000800000000FFFFFFCC0000000000000001E
:100990000000000000000000000000000000000057
:1009A0000000000000000000000000000000000047
:1009B0000000000000000000000000000000000037
:1009C00000000000000003071F3E7870F0F0E0E038
:1009D000E0F87E3F0F03000103070707070707073B
:1009E0000300000000000000000F1F3F7F3F0300D6
:1009F0000000000000070F1F0F00000000000103AF
:100A0000070F0E1C3878FF7F3F0000000000000039
:100A100000000000000003030000000000000000D0
:100A200000000000000000000000000000000000C6
:100A300000000000000000000000000000000000B6
:100A400000000000000000000000000000000000A6
:100A50000000000000000000000000000000000096
:100A60000000000000000000000000000000000086
:100A70000000000000000000000000000000000076
:100A80000000000000000000000000000000000066
:100A90000000000000000000000000000000000056
:100AA0000000010101010101010101010101010138
:100AB000010101020000000001000000010000002F
:100AC000020101000100010000000100000001011D
:100AD0000001030301000100010101010100000008
:100AE0000000010000000100000000000000010102
:100AF00000010100010001010001000001000000EF
:100B000000010102000000000001000000000100DF
:100B100002010101010101010101010101010101C4
:100B20000101003C4281A58199817E818591A9A521
:100B3000C34242C3A59589A1817E7EC12511093199
:100B4000C17E7E83A488908C837E7E8185819191F5
:100B5000917E7E89898981A1817E7E818581F181D5
:100B6000817E7E81A1818F81817E11241FBECFEF86
:100B7000D8E0DEBFCDBF11E0A0E0B1E0ECEBF5E2E4
:100B800002C005900D92A234B107D9F727E0A2E484
:100B9000B1E001C01D92A935B207E1F70E946A0DCC
:100BA0000C94DC120C9400008A3019F08D3049F05E
:100BB0000EC0609145056F5F809144010E94870ED1
:100BC00008956091450580E00E94870E08959091F8
:100BD000450540914401A42FB0E020E8929FA00D6C
:100BE000B11D1124AB5BBE4F805290E09C01220FDF
:100BF000331F820F931F880F991F20E030E0F90107
:100C0000E80FF91FE859FF4FE491E095ED932F5F4E
:100C10003F4F2630310599F74A5F409344010895CC
:100C2000CF93DF93EC018881882331F021960E94D5
:100C3000D40589918111FBCFDF91CF910895EDE427
:100C4000F5E0108288E18183138281E082838091C4
:100C50004C05858314828AE39BE0928781878AE52D
:100C60009BE0908787831682E6E4F5E088E3808343
:100C700080E18183128214821382158286B180936F
:100C80005805089587B1807F87B988B18F6088B98A
:100C900086B18093580508950E9442060E941F065F
:100CA0000E94D00D08950F931F93CF93DF93C2EA54
:100CB000D6E002EA1AE0FE0184910E94F20E21962B
:100CC000C017D107C1F7FFEF2AE187EBF1502040B1
:100CD0008040E1F700C000000E944C06DF91CF91F8
:100CE0001F910F9108950F931F93CF93DF93C2EA43
:100CF000D2E002EA16E0FE0184910E94F20E2196F3
:100D0000C017D107C1F7FFEF2AE187EBF150204070
:100D10008040E1F700C000000E944C06DF91CF91B7
:100D20001F910F910895E82FF0E080E1689FE00D9A
:100D3000F11D1124EE55F54F8491813031F0E4918D
:100D400081E0E13019F080E0089581E00895FC0130
:100D50008281813009F4FBC008F4A8C0823021F000
:100D6000833009F452C042C170E06E5F7F4FCB0107
:100D700099230CF407969C01359527953595279571
:100D800035952795522F642F70E06E5F7F4FCB0112
:100D900099230CF407969595879595958795959544
:100DA0008795482FFC01FF27E295F295F07FFE27FB
:100DB000E07FFE27E20FF11DEE55F54F8491882369
:100DC00031F0E491E23009F014C120E001C020E0EC
:100DD000822F90E0FC01EE0FFF1FEE0FFF1FE75A7E
:100DE000FA4F308153130CC0FC01EE0FFF1FEE0FC2
:100DF000FF1FE75AFA4F3181431302C0CF01089514
:100E00002F5F32F780E090E0089570E06F5F7F4FD2
:100E1000CB0199230CF407969C01359527953595C0
:100E2000279535952795522F642F70E06C5F7F4F83
:100E3000CB0199230CF40796959587959595879501
:100E400095958795482FFC01FF27E295F295F07F55
:100E5000FE27E07FFE27E20FF11DEE55F54F84914E
:100E6000882331F0E491E23009F0C6C020E001C0EF
:100E700020E0822F90E0FC01EE0FFF1FEE0FFF1F1E
:100E8000E75AFA4F308153130CC0FC01EE0FFF1FDD
:100E9000EE0FFF1FE75AFA4F3181431302C0CF0113
:100EA00008952F5F32F780E090E0089570E06E5F64
:100EB0007F4FCB0199230CF407969C01359527951C
:100EC0003595279535952795522F642F70E06E5FE5
:100ED0007F4FCB0199230CF40796959587959595AF
:100EE000879595958795482FFC01FF27E295F29508
:100EF000F07FFE27E07FFE27E20FF11DEE55F54F54
:100F00008491882331F0E491E23009F078C020E048
:100F100001C020E0822F90E0FC01EE0FFF1FEE0FDA
:100F2000FF1FE75AFA4F308153130CC0FC01EE0F3C
:100F3000FF1FEE0FFF1FE75AFA4F3181431302C024
:100F4000CF0108952F5F32F780E090E0089570E0C0
:100F50006C5F7F4FCB0199230CF407969C0135956C
:100F600027953595279535952795622F50E04E5F4B
:100F70005F4FCA0199230CF407969595879595952F
:100F8000879595958795482FFC01FF27E295F29567
:100F9000F07FFE27E07FFE27E20FF11DEE55F54FB3
:100FA0008491882329F0E491E23061F520E001C0CA
:100FB00020E0822F90E0FC01EE0FFF1FEE0FFF1FDD
:100FC000E75AFA4F308163130CC0FC01EE0FFF1F8C
:100FD000EE0FFF1FE75AFA4F3181431302C0CF01D2
:100FE00008952F5F32F780E090E0089580E090E070
:100FF000089580E090E0089580E090E0089580E01A
:1010000090E0089580E090E00895CF93DF93EC01A5
:10101000613009F444C038F0623009F47CC06330B8
:1010200009F4B5C0F0C0288130E021503109121612
:1010300013060CF0EAC06981669566956695C9014C
:1010400099230CF407969595879595958795959591
:1010500087950E9493068111DAC0898190E00796F6
:10106000BC0112F4695F7F4F75956795759567951B
:1010700075956795288130E021503109C901992380
:101080000CF40796959587959595879595958795F1
:101090000E94930691E08111C7C090E0C5C02881ED
:1010A00030E0285F3F4F203831050CF0B2C0698135
:1010B000669566956695C90199230CF407969595F2
:1010C000879595958795959587950E9493068111AB
:1010D000A2C0898190E00796BC0112F4695F7F4F3E
:1010E000759567957595679575956795288130E035
:1010F000285F3F4FC90199230CF407969595879572
:1011000095958795959587950E94930691E0811115
:101110008BC090E089C0898190E00197181619066C
:101120000CF07BC0BC01992314F4695F7F4F759567
:101130006795759567957595679588818695869568
:1011400086950E94930681116AC0898190E001977B
:10115000BC0112F4695F7F4F75956795759567952A
:1011600075956795288130E0295F3F4FC901992324
:101170000CF4079695958795959587959595879500
:101180000E94930691E081114FC090E04DC089818B
:1011900090E00896803491050CF043C0BC0199237F
:1011A00014F4695F7F4F759567957595679575958B
:1011B000679588818695869586950E94930681110C
:1011C00032C0898190E00896BC0112F4695F7F4FBC
:1011D000759567957595679575956795288130E044
:1011E000295F3F4FC90199230CF407969595879580
:1011F00095958795959587950E94930691E0811125
:1012000013C090E011C091E00FC091E00DC091E0DB
:101210000BC091E009C091E007C091E005C091E0EA
:1012200003C091E001C091E0892FDF91CF91089533
:10123000CF93DF93EC0186B18093580580915805D8
:1012400080FD10C062E0CE010E94050881110AC035
:1012500082E39BE09A87898782E59BE098878F836A
:1012600082E08A838091580583FD10C063E0CE013F
:101270000E94050881110AC08AE29BE09A8789874B
:101280008AE49BE098878F8383E08A838091580566
:1012900081FD10C061E0CE010E94050881110AC0E5
:1012A0008AE39BE09A8789878AE59BE098878F830A
:1012B00081E08A838091580582FD0FC060E0CE01F5
:1012C0000E940508811109C082E49BE09A87898702
:1012D00082E69BE098878F831A82DF91CF910895F1
:1012E000CF93DF93E9E5F5E089E597E03FEF28E06C
:1012F0004CE158E1EF016381662309F48FC06281FC
:10130000611192C0A181608170E8A79FD001112472
:10131000AB5BBE4F78E0679FA00DB11D11241C92FE
:1013200011961C92119712961C92129713965C9329
:10133000139714965C93149715961C92159716960E
:101340001C92169717961C9272C0A981688170E84A
:10135000A79FD0011124AB5BBE4F78E0679FA00D23
:10136000B11D11241C9211961C92119712964C9348
:10137000129713964C93139714964C9314971596B3
:101380004C93159716961C92169717961C926A8185
:1013900052C0A981688170E8A79FD0011124AB5B7E
:1013A000BE4F78E0679FA00DB11D11242C931196BC
:1013B0002C93119712962C93129713962C931397A4
:1013C00014962C93149715962C93159716962C9388
:1013D000169717962C9322C0A981688170E8A79F61
:1013E000D0011124AB5BBE4F78E0679FA00DB11D0B
:1013F00011243C9311963C93119712963C931297AB
:1014000013963C93139714963C93149715963C931C
:10141000159716963C93169717963C9334968E170D
:101420009F0709F067CF0AC0623009F48ECF6A8146
:10143000653009F4AECF613089F7CECFDF91CF911F
:101440000895CF93DF93EC018A81813069F138F000
:10145000823009F44EC0833009F46FC091C060E05F
:10146000CE010E94050881118BC06881615068839C
:101470004981CE010E94A706FC01892B09F480C096
:101480008281811106C08381882361F08C818F5F06
:101490008C838281823031F48381882319F08C819E
:1014A0008E5F8C8313826CC061E0CE010E940508C0
:1014B000811166C068816F5F68834981CE010E9497
:1014C000A706FC01892B09F45BC08281811106C04B
:1014D0008381882361F08C818F5F8C83828182304D
:1014E00031F48381882319F08C818E5F8C83138281
:1014F00047C062E0CE010E940508811141C04981C8
:10150000415049836881CE010E94A706FC01892BC6
:10151000B9F18281811106C08381882361F08C81B9
:101520008F5F8C838281823031F48381882319F02C
:101530008C818E5F8C83138223C063E0CE010E9476
:10154000050881111DC049814F5F49836881CE0123
:101550000E94A706FC01892B99F08281811106C0A7
:101560008381882361F08C818F5F8C8382818230BC
:1015700031F48381882319F08C818E5F8C831382F0
:10158000DF91CF910895EF92FF920F931F93CF9326
:10159000DF938C01DC0113968C91813089F1E12C71
:1015A000F12C64C0D8011996ED91FC911A97EE0DBB
:1015B000FF1DE491F0E00C2E02C0F595E7950A942A
:1015C000E2F7E0FF08C0F80161816E0D80818C0FA9
:1015D0000E94FA0E09C0D80111966C9111976E0DF8
:1015E0008C918C0F0E94160F2196C830D105D1F630
:1015F000EFEFEE1AFE0AF8E0EF16F10419F405C059
:10160000E12CF12CC0E0D0E0CDCFD80113961C9294
:1016100034C0D8011796ED91FC911897EE0DFF1D7F
:10162000E491F0E00C2E02C0F595E7950A94E2F7FC
:10163000E0FF08C0F80161816E0D80818C0F0E946F
:10164000FA0E09C0D80111966C9111976E0D8C910C
:101650008C0F0E94160F2196C830D105D1F6EFEFFE
:10166000EE1AFE0AF8E0EF16F10419F0C0E0D0E03F
:10167000D0CF81E0D80113968C93DF91CF911F9149
:101680000F91FF90EF9008950F931F93CF93DF93E7
:10169000CDB7DEB72A970FB6F894DEBF0FBECDBF29
:1016A0001F928F9380E091E09F938F938E010F5F45
:1016B0001F4F1F930F930E94F20F67E080E00E947C
:1016C000870EC8010E9410060F900F900F900F9088
:1016D0000F900F902A960FB6F894DEBF0FBECDBFC5
:1016E000DF91CF911F910F910895CF93DF93CDB7E5
:1016F000DEB72A970FB6F894DEBF0FBECDBF97E0D6
:10170000E9E0F1E0DE01119601900D929A95E1F782
:10171000882379F090E0DE01119623E230E0FD01AC
:1017200001900020E9F73197318320839F5F89136F
:10173000F6CF67E088E40E94870ECE0101960E94F2
:1017400010062A960FB6F894DEBF0FBECDBFDF910C
:10175000CF910895DF92EF92FF920F931F93CF9353
:10176000DF938C010F2EF2E2EF2EFBE0FF2EF02D27
:10177000D12C25C0F701849190E00C2E02C09595E4
:1017800087950A94E2F780FF08C0F80161816D0D2A
:1017900080818C0F0E94FA0E07C0F80161816D0DE7
:1017A00080818C0F0E94160F2196C830D10511F749
:1017B000D3942FEFE21AF20A88E0D81619F0C0E0AD
:1017C000D0E0D8CFDF91CF911F910F91FF90EF9094
:1017D000DF9008950F931F93CF93DF938C01EB015C
:1017E000FC016081888190E002969C0112F4295FDF
:1017F0003F4F359527953595279535952795462F54
:1018000050E04E5F5F4FCA0199230CF407969595FF
:10181000879595958795959587952817390711F59B
:10182000898190E002969C0112F4295F3F4FA90143
:10183000559547955595479555954795F80181815B
:1018400090E002969C0112F4295F3F4F3595279551
:1018500035952795359527954217530719F481E05B
:10186000F80186838D81811109C08881681370C059
:101870009981F8018181981351C06AC088816817E5
:1018800028F560E0CE010E940508811102C01A828D
:101890005EC0F80191818981981760F482E08A83A3
:1018A00062E0CE010E940508882309F450C083E05D
:1018B0008A834DC083E08A8363E0CE010E940508DD
:1018C000882309F444C082E08A8341C0861720F54A
:1018D00061E0CE010E940508811103C081E08A8386
:1018E00036C0F80191818981981758F482E08A8383
:1018F00062E0CE010E940508882349F183E08A83D3
:1019000026C083E08A8363E0CE010E940508882315
:10191000F1F082E08A831BC0681319C0F80191813D
:101920008981891750F483E08A8363E0CE010E94A5
:101930000508882361F01A820AC082E08A8362E087
:10194000CE010E940508882311F081E08A831D8260
:101950008A818130E1F030F0823079F1833009F40E
:1019600042C056C060E0CE010E94050881110CC043
:101970008B81883030F49881915098838F5F8B836E
:1019800047C01B821C8244C081E08D8341C061E05E
:10199000CE010E94050881110DC08B81883030F482
:1019A00098819F5F98838F5F8B8332C01B8281E019
:1019B0008C832EC081E08D832BC062E0CE010E941B
:1019C000050881110DC08B81883030F499819150C8
:1019D00099838F5F8B831CC01B8282E08C8318C02D
:1019E00081E08D8315C063E0CE010E94050881115E
:1019F0000DC08B81883030F499819F5F99838F5F10
:101A00008B8306C01B8283E08C8302C081E08D83C0
:101A1000DF91CF911F910F9108951F920F920FB6F2
:101A20000F9211248F93809143018C3330F081E029
:101A3000809342011092430116BC809143018F5F55
:101A4000809343018F910F900FBE0F901F901895B8
:101A50001F920F920FB60F9211242F933F934F9323
:101A60005F936F937F938F939F93AF93BF93EF9306
:101A7000FF938DE495E00E94C30A80E49CE9909373
:101A8000850080938400FF91EF91BF91AF919F916A
:101A90008F917F916F915F914F913F912F910F9017
:101AA0000FBE0F901F90189585B5836085BD16BC3D
:101AB00091E090936E00E1E8F0E0808182608083A5
:101AC00022EC32EA309385002093840090936F00DB
:101AD00078940895209A289A83E080934C050E9478
:101AE000470E0E94450F0E9442060E941F060E9458
:101AF000540D0E94D00D13E080914201813019F500
:101B00000E9470098DE495E00E94C30A86E495E086
:101B10000E94AA0BCDE4D5E08C810E94440B8D81FC
:101B20000E94750B0E94C70E0E94330FCE010E94C7
:101B30001809CE010E94210A66E475E0CE010E94D8
:101B4000EA0B1092420180915105803431F40E94D9
:101B5000530610934C050E944C0680915305882330
:101B600059F280914C058230A0F0CDE4D5E01E8280
:101B7000815080934C050E944C0680914C058D83CA
:101B80008E81882309F4B8CF80914C05823008F00B
:101B9000B3CF0E94730610934C050E944C06ACCF45
:101BA000E9E5F5E029E537E08FEF108211828283C5
:101BB00013823496E217F307C1F722EA3AE050E0C5
:101BC00090E041E072E065E05EC0A491A11112C016
:101BD000A92FB0E0AA0FBB1FAA0FBB1FA75ABA4F6D
:101BE0008C9311965C93119712961C9212971396F0
:101BF0004C939F5FA491A23091F4A92FB0E0AA0F5B
:101C0000BB1FAA0FBB1FA75ABA4F8C9311965C93A8
:101C1000119712967C93129713964C939F5FA49101
:101C2000A53091F4A92FB0E0AA0FBB1FAA0FBB1FCC
:101C3000A75ABA4F8C9311965C93119712966C9396
:101C4000129713964C939F5FA491A13091F4A92F02
:101C5000B0E0AA0FBB1FAA0FBB1FA75ABA4F8C93A5
:101C600011965C93119712964C93129713964C937E
:101C70009F5F8F5F3196803109F0A7CF5F5F205F54
:101C80003F4F583019F0F90180E09FCF089584B19B
:101C90008C6284B92A9A8AB1806E8AB98BB1806EBF
:101CA0008BB980E58CBD08955F9821E22A95F1F704
:101CB00000005F9A81E28A95F1F700005F9891E257
:101CC0009A95F1F700005F9A2FE38DE093E02150A1
:101CD00080409040E1F700C000000895AC015E989C
:101CE0005D986115710589F020E030E090E0FA011F
:101CF000E20FF31F20812EBD0DB407FEFDCF9F5FC5
:101D0000292F30E02617370790F35D9A0895CF9377
:101D1000DF9300D000D0CDB7DEB790EB960F99835C
:101D200091E29A838B839FE79C8380934401609325
:101D3000450564E070E0CE0101960E946E0E0F90A2
:101D40000F900F900F90DF91CF9108955E985D985E
:101D50008EBD0DB407FEFDCF5D9A0895AC015E9A6D
:101D60005D986115710589F020E030E090E0FA019E
:101D7000E20FF31F20812EBD0DB407FEFDCF9F5F44
:101D8000292F30E02617370790F35D9A0895EF92D8
:101D9000FF920F931F93CF93DF9360E080E00E9448
:101DA000870EC5E4D1E00F2EF5E4EF2EF5E0FF2E0F
:101DB000F02D0DC061E070E0CE010E94AE0E2196C4
:101DC000C017D107B9F7E801E016F10621F08E013E
:101DD00000581F4FEFCFDF91CF911F910F91FF90D0
:101DE000EF9008955E9A5D988EBD0DB407FEFDCF0D
:101DF0005D9A08958823CCF06034B8F4E62FE69518
:101E0000E695E69590E8E99FF0011124EB5BFE4F23
:101E1000E80FF11D677081E090E002C0880F991F04
:101E20006A95E2F79081892B808308958823D4F006
:101E30006034C0F4E62FE695E695E69590E8E99FD4
:101E4000F0011124EB5BFE4FE80FF11D677081E09C
:101E500090E002C0880F991F6A95E2F78095908103
:101E6000892380830895E5E4F1E025E435E008C0A6
:101E70001192E817F907E1F7FC012817390721F05B
:101E8000CF0180589F4FF4CF08950F931F93CF93A6
:101E9000DF9300D000D0CDB7DEB719821A821B8243
:101EA0001C820E94540E10924401109245058EEA45
:101EB000898361E070E0CE0101960E946E0E10E20F
:101EC00019831A8262E070E0CE0101960E946E0EC4
:101ED00080EB898361E070E0CE0101960E946E0E76
:101EE00088EC89831A8280E18B8380E48C8364E0B0
:101EF00070E0CE0101960E946E0E81E889830FE3A7
:101F00000A8362E070E0CE0101960E946E0E81EAC3
:101F1000898361E070E0CE0101960E946E0E86EA30
:101F2000898361E070E0CE0101960E946E0E88EA1E
:101F300089830A8362E070E0CE0101960E946E0EF2
:101F400084EA898361E070E0CE0101960E946E0E02
:101F500083ED89831A8262E070E0CE0101960E94CF
:101F60006E0E85ED898380EF8A8362E070E0CE019A
:101F700001960E946E0E89ED898382E28A8362E077
:101F800070E0CE0101960E946E0E8AED898382E197
:101F90008A8362E070E0CE0101960E946E0E8BEDA6
:101FA00089831A8362E070E0CE0101960E946E0E72
:101FB0008DE8898384E18A8362E070E0CE01019636
:101FC0000E946E0E8FEA0E94A60E0E94330F0E949E
:101FD000C70E0F900F900F900F90DF91CF911F9130
:101FE0000F910895AEE0B0E0E8EFFFE00C94B3127B
:101FF0000D891E8986E08C831A8309838FEF9FE702
:102000009E838D83AE01475E5F4F6F89788DCE01D1
:1020100001960E941410EF81F885E00FF11F1082E5
:102020002E96E4E00C94CF12ABE0B0E0EAE1F0E1F0
:102030000C94A5126C017B018A01FC0117821682A7
:10204000838181FFCCC1CE0101963C01F6019381D1
:10205000F70193FD859193FF81917F01882309F416
:10206000BAC1853239F493FD859193FF81917F0147
:10207000853229F4B60190E00E940B12E7CF912C33
:10208000212C312CFFE1F315D8F08B3279F038F4A4
:10209000803279F08332A1F4232D20611DC08D326E
:1020A00061F0803369F4232D216016C0832D826096
:1020B000382EE32DE4603E2E2AC0F32DF8601DC0BB
:1020C00037FC2DC020ED280F2A3040F08E32B9F4B5
:1020D00036FC81C1232D2064322E19C036FE06C085
:1020E0008AE0989E200D1124922E11C0EAE02E9EC7
:1020F000200D1124222EF32DF0623F2E08C08C36C5
:1021000021F4832D8068382E02C0883641F4F7010F
:1021100093FD859193FF81917F018111B3CF982F1A
:102120009F7D9554933028F40C5F1F4F9FE3998354
:102130000DC0833631F0833771F0833509F059C013
:1021400021C0F801808189830E5F1F4F882483940A
:10215000912C530113C02801F2E04F0E511CF801DD
:10216000A080B18036FE03C0692D70E002C06FEF21
:102170007FEFC5010E9400124C018201F32DFF7711
:102180003F2E16C0280122E0420E511CF801A0800B
:10219000B18036FE03C0692D70E002C06FEF7FEFA3
:1021A000C5010E94F5114C01F32DF0683F2E82010C
:1021B00033FC1BC0822D90E088169906B0F4B6015E
:1021C00080E290E00E940B122A94F4CFF50137FCD4
:1021D000859137FE81915F01B60190E00E940B125C
:1021E00021102A9421E0821A91088114910471F738
:1021F000E8C0843611F0893641F5F80137FE07C092
:1022000060817181828193810C5F1F4F08C0608162
:102210007181072E000C880B990B0E5F1F4FF32D59
:10222000FF763F2E97FF09C0909580957095619538
:102230007F4F8F4F9F4FF0683F2E2AE030E0A30181
:102240000E944712882E861845C0853731F4232D09
:102250002F7EB22E2AE030E025C0932D997FB92E33
:102260008F36C1F018F4883579F0B5C0803719F091
:10227000883721F0B0C0E92FE061BE2EB4FE0DC05A
:10228000FB2DF460BF2E09C034FE0AC0292F266042
:10229000B22E06C028E030E005C020E130E002C0E8
:1022A00020E132E0F801B7FE07C0608171818281D0
:1022B00093810C5F1F4F06C06081718180E090E0C8
:1022C0000E5F1F4FA3010E944712882E8618FB2D18
:1022D000FF773F2E36FE0DC0232D2E7FA22E8914B0
:1022E00058F434FE0BC032FC09C0832D8E7EA82E1C
:1022F00005C0B82CA32C03C0B82C01C0B92CA4FE77
:102300000FC0FE01E80DF11D8081803321F49A2D6C
:10231000997EA92E09C0A2FE06C0B394B39404C04E
:102320008A2D867809F0B394A3FC11C0A0FE06C0E4
:10233000B21488F4280C922C9B180EC0B21460F4CE
:10234000B60180E290E00E940B12B394F7CFB21472
:1023500018F42B1802C0982C212CA4FE10C0B60132
:1023600080E390E00E940B12A2FE17C0A1FC03C004
:1023700088E790E002C088E590E0B6010CC08A2DA5
:10238000867859F0A1FE02C08BE201C080E2A7FC72
:102390008DE2B60190E00E940B12891438F4B60168
:1023A00080E390E00E940B129A94F7CF8A94F30195
:1023B000E80DF11D8081B60190E00E940B128110A2
:1023C000F5CF222009F442CEB60180E290E00E94CF
:1023D0000B122A94F6CFF6018681978102C08FEF07
:1023E0009FEF2B96E2E10C94C112FC010590615025
:1023F00070400110D8F7809590958E0F9F1F08951B
:10240000FC016150704001900110D8F780959095C3
:102410008E0F9F1F08950F931F93CF93DF93FB01A0
:10242000238121FD03C08FEF9FEF2CC022FF16C038
:1024300046815781248135814217530744F4A08196
:10244000B1819D012F5F3F4F318320838C93268183
:1024500037812F5F3F4F3783268314C08B01EC01F8
:10246000FB010084F185E02D0995892BE1F6D80167
:1024700016968D919C911797019617969C938E9323
:102480001697CE01DF91CF911F910F910895FA0118
:10249000AA27283051F1203181F1E8946F936E7FA3
:1024A0006E5F7F4F8F4F9F4FAF4FB1E03ED0B4E094
:1024B0003CD0670F781F891F9A1FA11D680F791FD5
:1024C0008A1F911DA11D6A0F711D811D911DA11DE6
:1024D00020D009F468943F912AE0269F11243019F6
:1024E000305D3193DEF6CF010895462F4770405D91
:1024F0004193B3E00FD0C9F7F6CF462F4F70405D40
:102500004A3318F0495D31FD4052419302D0A9F79A
:10251000EACFB4E0A6959795879577956795BA9594
:10252000C9F700976105710508959B01AC010A2E5A
:1025300006945795479537952795BA95C9F7620F31
:10254000731F841F951FA01D08952F923F924F92D5
:102550005F926F927F928F929F92AF92BF92CF9233
:10256000DF92EF92FF920F931F93CF93DF93CDB73C
:10257000DEB7CA1BDB0B0FB6F894DEBF0FBECDBFB4
:1025800009942A88398848885F846E847D848C8485
:102590009B84AA84B984C884DF80EE80FD800C818E
:1025A0001B81AA81B981CE0FD11D0FB6F894DEBF71
:0C25B0000FBECDBFED010895F894FFCFE1
:1025BC0053636F72653A2564004C697665733A0013
:1025CC00436F6F7264733A202825642C202564298C
:1025DC000D0A63426F783A202825642C2025642943
:1025EC00202D2D2025640D0A436F6C6C733A202529
:0225FC00640079
:00000001FF
